:100000000C944D000C946C000C946C000C946C00DF
:100010000C946C000C946C000C946C000C946C00B0
:100020000C946C000C946C000C946C000C946C00A0
:100030000C946C000C94E5000C946C000C946C0017
:100040000C946C000C946C000C946C000C946C0080
:100050000C946C000C946C000C946C000C946C0070
:100060000C946C000C946C000C946C000C946C0060
:100070000C946C000C946C000C946C000C946C0050
:100080000C946C000C946C000C946C0096019D0117
:10009000AE01D001BF01E101F20111241FBECFEF7B
:1000A000D0E4DEBFCDBF11E0A0E0B1E0E4ECF4E0CD
:1000B00000E00BBF02C007900D92A231B107D9F743
:1000C00021E0A2E1B1E001C01D92A931B207E1F740
:1000D0000E942B020C9460020C940000CF93DF93DB
:1000E00000D01F92CDB7DEB789837B836A83898175
:1000F0008A3031F48A819B81BC018DE00E946E00C0
:1001000080EC90E0FC018081882F90E0807299273C
:10011000892BB1F386EC90E02981FC01208380E0FB
:1001200090E00F900F900F90DF91CF910895CF93B3
:10013000DF93CDB7DEB781E890E02BE0FC012083B0
:1001400088E890E02DE730E0FC01318320838FE6E2
:1001500090E022E0FC01208384E890E0FC01118221
:10016000108280910E0190910F01A0911001B09129
:1001700011018093130190931401A0931501B09382
:1001800016018FE590E02FE530E0F901208120682D
:10019000FC0120830000DF91CF910895CF93DF937E
:1001A000CDB7DEB781E890E0FC0110820000DF915E
:1001B000CF910895CF93DF93CDB7DEB781E08093E1
:1001C00012010000DF91CF9108951F920F920090CD
:1001D0005F000F92112400905B000F922F933F93CA
:1001E0004F935F936F937F938F939F93AF93BF933F
:1001F000EF93FF93CF93DF93CDB7DEB780911301D9
:1002000090911401A0911501B09116010197A109D7
:10021000B1098093130190931401A0931501B09339
:1002200016018091130190911401A0911501B091D4
:100230001601892B8A2B8B2B91F40E94DA00809176
:100240000E0190910F01A0911001B09111018093C6
:10025000130190931401A0931501B09316010000AF
:10026000DF91CF91FF91EF91BF91AF919F918F91CE
:100270007F916F915F914F913F912F910F900092DD
:100280005B000F9000925F000F901F901895CF9326
:10029000DF9300D000D0CDB7DEB769837A838B833C
:1002A0009C8389819A81AB81BC8180930E0190935C
:1002B0000F01A0931001B093110180910E01909154
:1002C0000F01A0911001B09111018093130190933F
:1002D0001401A0931501B093160100000F900F9028
:1002E0000F900F90DF91CF910895CF93DF931F92DE
:1002F000CDB7DEB780E290E0FC01808180958983F4
:100300008091170190911801CC01A0E0B0E040E08D
:1003100050E026E030E0841B950B2817390708F4DD
:1003200072C08A5B9F4FFC010C94570281E090E001
:10033000909318018093170167C08981882339F44D
:1003400082E090E090931801809317015DC085E0F2
:1003500090E0909318018093170156C089818823FB
:1003600039F484E090E090931801809317014CC019
:1003700085E090E0909318018093170145C0898132
:10038000882339F483E090E090931801809317015B
:100390003BC085E090E0909318018093170134C032
:1003A0008981882339F481E090E09093180180934B
:1003B00017012AC085E090E09093180180931701FF
:1003C00023C08981882339F486E090E09093180156
:1003D0008093170119C085E090E0909318018093F5
:1003E000170112C08981813039F481E090E0909347
:1003F00018018093170108C086E090E090931801DF
:100400008093170101C0000080911701909118019D
:100410008430910530F48230910560F4019721F029
:1004200015C0049769F012C085E290E021E0FC015C
:1004300020830CC085E290E022E0FC01208306C00E
:1004400085E290E024E0FC012083000000000F9092
:10045000DF91CF910895CF93DF93CDB7DEB781E2DF
:1004600090E0FC01108284E290E02FEFFC012083F9
:1004700085E290E0FC01108282E290E02FEFFC0127
:1004800020836CE271E080E090E00E9447010E94CE
:10049000970010921801109217010E947501000038
:1004A000809112018823E1F310921201F6CFEE0F32
:1004B000FF1F0024001C0BBE0790F691E02D09944D
:0404C000F894FFCFDE
:1004C40000000002000000006E00000000000100B7
:0204D400000026
:00000001FF
